:100000000C9434000C9446000C9446000C9446006A
:100010000C9446000C9446000C9446000C94460048
:100020000C9446000C9446000C9446000C94460038
:100030000C9446000C9446000C9448000C94460026
:100040000C9446000C9446000C9446000C94460018
:100050000C9446000C9446000C9446000C94460008
:100060000C9446000C94460011241FBECFEFD4E040
:10007000DEBFCDBF11E0A0E0B1E001C01D92A33111
:10008000B107E1F70E94CB020C94D6020C94000059
:100090001F920F920FB60F9211248F93EF93FF933D
:1000A000E0910E01F0E0E65FFE4F808188B980911B
:1000B0000E01833030F480910E018F5F80930E012A
:1000C00002C010920E0116BCFF91EF918F910F901C
:1000D0000FBE0F901F90189510920201109203010D
:1000E000109204011092050110920601109207016E
:1000F000109208011092090182E080930801109289
:100100000E01A0E081E090E035C2FB01EE5FFE4F02
:10011000E081E13049F1E13020F0E23009F001C145
:1001200092C0A23009F4C9C0A33081F0A130E9F136
:10013000B0910F01FC01022E02C0EE0FFF1F0A94C6
:10014000E2F7E095EB23E0930F0121C0B09112019B
:10015000FC01022E02C0EE0FFF1F0A94E2F7E095A9
:10016000EB23E0931201D0C0A230D1F1A33009F407
:1001700051C0A130D1F0B0910F01FC01022E02C09C
:10018000EE0FFF1F0A94E2F7BE2BB0930F01B09160
:100190000F01FC01042E02C0EE0FFF1F0A94E2F7CC
:1001A000E095EB23E0930F01BCC0B0911001FC017E
:1001B000022E02C0EE0FFF1F0A94E2F7E095EB2338
:1001C000E0931001B0911001FC01042E02C0EE0F6B
:1001D000FF1F0A94E2F7E095EB23E0931001A1C022
:1001E000B0911101FC01022E02C0EE0FFF1F0A9414
:1001F000E2F7E095EB23E0931101B0911101FC01CE
:10020000042E02C0EE0FFF1F0A94E2F7BE2BB0933C
:10021000110187C0B0911201FC01022E02C0EE0F45
:10022000FF1F0A94E2F7BE2BB0931201B0911201A6
:10023000FC01042E02C0EE0FFF1F0A94E2F7BE2B52
:10024000B09312016EC0A230C1F1A33009F450C0C6
:10025000A130C9F0B0910F01FC01022E02C0EE0FD7
:10026000FF1F0A94E2F7BE2BB0930F01B0910F016C
:10027000FC01042E02C0EE0FFF1F0A94E2F7BE2B12
:10028000B0930F014EC0B0911001FC01022E02C0CC
:10029000EE0FFF1F0A94E2F7E095EB23E0931001C5
:1002A000B0911001FC01042E02C0EE0FFF1F0A9452
:1002B000E2F7BE2BB093100134C0B0911101FC01E4
:1002C000022E02C0EE0FFF1F0A94E2F7E095EB2327
:1002D000E0931101B0911101FC01042E02C0EE0F58
:1002E000FF1F0A94E2F7E095EB23E093110119C098
:1002F000B0911201FC01022E02C0EE0FFF1F0A9402
:10030000E2F7BE2BB0931201B0911201FC01042E52
:1003100002C0EE0FFF1F0A94E2F7E095EB23E09393
:1003200012016F5F7F4F2E5F3F4F4E5F5F4F643014
:10033000710509F0EACE41E050E020E030E064E0F1
:1003400070E0FB01EE5FFE4FE081E13049F1E1300A
:1003500020F0E23009F001C192C0A23009F4C9C016
:10036000A33081F0A130E9F1B0910A01FC01022E25
:1003700002C0EE0FFF1F0A94E2F7E095EB23E09333
:100380000A0121C0B0910D01FC01022E02C0EE0F46
:10039000FF1F0A94E2F7E095EB23E0930D01D0C034
:1003A000A230D1F1A33009F451C0A130D1F0B09105
:1003B0000A01FC01022E02C0EE0FFF1F0A94E2F7B1
:1003C000BE2BB0930A01B0910A01FC01042E02C0B9
:1003D000EE0FFF1F0A94E2F7E095EB23E0930A018A
:1003E000BCC0B0910B01FC01022E02C0EE0FFF1F3A
:1003F0000A94E2F7E095EB23E0930B01B0910B0137
:10040000FC01042E02C0EE0FFF1F0A94E2F7E095F4
:10041000EB23E0930B01A1C0B0910C01FC01022E73
:1004200002C0EE0FFF1F0A94E2F7E095EB23E09382
:100430000C01B0910C01FC01042E02C0EE0FFF1F55
:100440000A94E2F7BE2BB0930C0187C0B0910D0166
:10045000FC01022E02C0EE0FFF1F0A94E2F7BE2B32
:10046000B0930D01B0910D01FC01042E02C0EE0FFE
:10047000FF1F0A94E2F7BE2BB0930D016EC0A230AD
:10048000C1F1A33009F450C0A130C9F0B0910A0104
:10049000FC01022E02C0EE0FFF1F0A94E2F7BE2BF2
:1004A000B0930A01B0910A01FC01042E02C0EE0FC4
:1004B000FF1F0A94E2F7BE2BB0930A014EC0B09121
:1004C0000B01FC01022E02C0EE0FFF1F0A94E2F79F
:1004D000E095EB23E0930B01B0910B01FC01042E9E
:1004E00002C0EE0FFF1F0A94E2F7BE2BB0930B0180
:1004F00034C0B0910C01FC01022E02C0EE0FFF1FB0
:100500000A94E2F7E095EB23E0930C01B0910C0123
:10051000FC01042E02C0EE0FFF1F0A94E2F7E095E3
:10052000EB23E0930C0119C0B0910D01FC01022EE8
:1005300002C0EE0FFF1F0A94E2F7BE2BB0930D012D
:10054000B0910D01FC01042E02C0EE0FFF1F0A94B2
:10055000E2F7E095EB23E0930D016F5F7F4F2E5F95
:100560003F4F4E5F5F4F6830710509F0EACEAF5FD5
:10057000A43039F041E050E020E030E060E070E08D
:10058000C4CD089514BC84E085BD8EE487BD82E0AF
:1005900080936E0008950E946C000E94C20287B191
:1005A0008F6387B9529A78945A98FECFF894FFCF08
:00000001FF
